{
  "_format": "hh-sol-artifact-1",
  "contractName": "BBSNSMultiSig",
  "sourceName": "contracts/BBSNSMultiSig.sol",
  "abi": [
    {
      "inputs": [
        {
          "internalType": "address[]",
          "name": "_signers",
          "type": "address[]"
        },
        {
          "internalType": "uint256",
          "name": "_threshold",
          "type": "uint256"
        },
        {
          "internalType": "uint256",
          "name": "_timelockDelay",
          "type": "uint256"
        }
      ],
      "stateMutability": "nonpayable",
      "type": "constructor"
    },
    {
      "inputs": [],
      "name": "ECDSAInvalidSignature",
      "type": "error"
    },
    {
      "inputs": [
        {
          "internalType": "uint256",
          "name": "length",
          "type": "uint256"
        }
      ],
      "name": "ECDSAInvalidSignatureLength",
      "type": "error"
    },
    {
      "inputs": [
        {
          "internalType": "bytes32",
          "name": "s",
          "type": "bytes32"
        }
      ],
      "name": "ECDSAInvalidSignatureS",
      "type": "error"
    },
    {
      "inputs": [],
      "name": "InvalidShortString",
      "type": "error"
    },
    {
      "inputs": [],
      "name": "ReentrancyGuardReentrantCall",
      "type": "error"
    },
    {
      "inputs": [
        {
          "internalType": "string",
          "name": "str",
          "type": "string"
        }
      ],
      "name": "StringTooLong",
      "type": "error"
    },
    {
      "anonymous": false,
      "inputs": [],
      "name": "EIP712DomainChanged",
      "type": "event"
    },
    {
      "anonymous": false,
      "inputs": [
        {
          "indexed": true,
          "internalType": "address",
          "name": "newSigner",
          "type": "address"
        }
      ],
      "name": "SignerAdded",
      "type": "event"
    },
    {
      "anonymous": false,
      "inputs": [
        {
          "indexed": true,
          "internalType": "address",
          "name": "oldSigner",
          "type": "address"
        }
      ],
      "name": "SignerRemoved",
      "type": "event"
    },
    {
      "anonymous": false,
      "inputs": [
        {
          "indexed": false,
          "internalType": "uint256",
          "name": "newThreshold",
          "type": "uint256"
        }
      ],
      "name": "ThresholdChanged",
      "type": "event"
    },
    {
      "anonymous": false,
      "inputs": [
        {
          "indexed": false,
          "internalType": "uint256",
          "name": "newDelay",
          "type": "uint256"
        }
      ],
      "name": "TimelockChanged",
      "type": "event"
    },
    {
      "anonymous": false,
      "inputs": [
        {
          "indexed": true,
          "internalType": "uint256",
          "name": "txIndex",
          "type": "uint256"
        },
        {
          "indexed": true,
          "internalType": "address",
          "name": "confirmer",
          "type": "address"
        }
      ],
      "name": "TransactionConfirmed",
      "type": "event"
    },
    {
      "anonymous": false,
      "inputs": [
        {
          "indexed": true,
          "internalType": "uint256",
          "name": "txIndex",
          "type": "uint256"
        },
        {
          "indexed": true,
          "internalType": "address",
          "name": "executor",
          "type": "address"
        },
        {
          "indexed": true,
          "internalType": "address",
          "name": "to",
          "type": "address"
        },
        {
          "indexed": false,
          "internalType": "uint256",
          "name": "value",
          "type": "uint256"
        }
      ],
      "name": "TransactionExecuted",
      "type": "event"
    },
    {
      "anonymous": false,
      "inputs": [
        {
          "indexed": true,
          "internalType": "uint256",
          "name": "txIndex",
          "type": "uint256"
        },
        {
          "indexed": true,
          "internalType": "address",
          "name": "revoker",
          "type": "address"
        }
      ],
      "name": "TransactionRevoked",
      "type": "event"
    },
    {
      "anonymous": false,
      "inputs": [
        {
          "indexed": true,
          "internalType": "uint256",
          "name": "txIndex",
          "type": "uint256"
        },
        {
          "indexed": true,
          "internalType": "address",
          "name": "proposer",
          "type": "address"
        },
        {
          "indexed": true,
          "internalType": "address",
          "name": "to",
          "type": "address"
        },
        {
          "indexed": false,
          "internalType": "uint256",
          "name": "value",
          "type": "uint256"
        },
        {
          "indexed": false,
          "internalType": "bytes",
          "name": "data",
          "type": "bytes"
        }
      ],
      "name": "TransactionSubmitted",
      "type": "event"
    },
    {
      "inputs": [
        {
          "internalType": "address",
          "name": "_newSigner",
          "type": "address"
        }
      ],
      "name": "addSigner",
      "outputs": [],
      "stateMutability": "nonpayable",
      "type": "function"
    },
    {
      "inputs": [
        {
          "internalType": "uint256",
          "name": "_newThreshold",
          "type": "uint256"
        }
      ],
      "name": "changeThreshold",
      "outputs": [],
      "stateMutability": "nonpayable",
      "type": "function"
    },
    {
      "inputs": [
        {
          "internalType": "uint256",
          "name": "_txIndex",
          "type": "uint256"
        }
      ],
      "name": "confirmTransaction",
      "outputs": [],
      "stateMutability": "nonpayable",
      "type": "function"
    },
    {
      "inputs": [
        {
          "internalType": "uint256",
          "name": "_txIndex",
          "type": "uint256"
        },
        {
          "internalType": "bytes",
          "name": "_signature",
          "type": "bytes"
        }
      ],
      "name": "confirmWithSignature",
      "outputs": [],
      "stateMutability": "nonpayable",
      "type": "function"
    },
    {
      "inputs": [],
      "name": "eip712Domain",
      "outputs": [
        {
          "internalType": "bytes1",
          "name": "fields",
          "type": "bytes1"
        },
        {
          "internalType": "string",
          "name": "name",
          "type": "string"
        },
        {
          "internalType": "string",
          "name": "version",
          "type": "string"
        },
        {
          "internalType": "uint256",
          "name": "chainId",
          "type": "uint256"
        },
        {
          "internalType": "address",
          "name": "verifyingContract",
          "type": "address"
        },
        {
          "internalType": "bytes32",
          "name": "salt",
          "type": "bytes32"
        },
        {
          "internalType": "uint256[]",
          "name": "extensions",
          "type": "uint256[]"
        }
      ],
      "stateMutability": "view",
      "type": "function"
    },
    {
      "inputs": [
        {
          "internalType": "uint256",
          "name": "_txIndex",
          "type": "uint256"
        }
      ],
      "name": "executeTransaction",
      "outputs": [],
      "stateMutability": "nonpayable",
      "type": "function"
    },
    {
      "inputs": [],
      "name": "getSigners",
      "outputs": [
        {
          "internalType": "address[]",
          "name": "",
          "type": "address[]"
        }
      ],
      "stateMutability": "view",
      "type": "function"
    },
    {
      "inputs": [
        {
          "internalType": "uint256",
          "name": "_txIndex",
          "type": "uint256"
        }
      ],
      "name": "getTransaction",
      "outputs": [
        {
          "internalType": "address",
          "name": "to",
          "type": "address"
        },
        {
          "internalType": "uint256",
          "name": "value",
          "type": "uint256"
        },
        {
          "internalType": "bytes",
          "name": "data",
          "type": "bytes"
        },
        {
          "internalType": "bool",
          "name": "executed",
          "type": "bool"
        },
        {
          "internalType": "uint256",
          "name": "numConfirmations",
          "type": "uint256"
        },
        {
          "internalType": "uint256",
          "name": "submissionTime",
          "type": "uint256"
        },
        {
          "internalType": "uint256",
          "name": "txSignerVersion",
          "type": "uint256"
        }
      ],
      "stateMutability": "view",
      "type": "function"
    },
    {
      "inputs": [],
      "name": "getTransactionCount",
      "outputs": [
        {
          "internalType": "uint256",
          "name": "",
          "type": "uint256"
        }
      ],
      "stateMutability": "view",
      "type": "function"
    },
    {
      "inputs": [
        {
          "internalType": "uint256",
          "name": "",
          "type": "uint256"
        },
        {
          "internalType": "address",
          "name": "",
          "type": "address"
        }
      ],
      "name": "isConfirmed",
      "outputs": [
        {
          "internalType": "bool",
          "name": "",
          "type": "bool"
        }
      ],
      "stateMutability": "view",
      "type": "function"
    },
    {
      "inputs": [
        {
          "internalType": "address",
          "name": "",
          "type": "address"
        }
      ],
      "name": "isSigner",
      "outputs": [
        {
          "internalType": "bool",
          "name": "",
          "type": "bool"
        }
      ],
      "stateMutability": "view",
      "type": "function"
    },
    {
      "inputs": [
        {
          "internalType": "address",
          "name": "_oldSigner",
          "type": "address"
        }
      ],
      "name": "removeSigner",
      "outputs": [],
      "stateMutability": "nonpayable",
      "type": "function"
    },
    {
      "inputs": [
        {
          "internalType": "uint256",
          "name": "_txIndex",
          "type": "uint256"
        }
      ],
      "name": "revokeConfirmation",
      "outputs": [],
      "stateMutability": "nonpayable",
      "type": "function"
    },
    {
      "inputs": [
        {
          "internalType": "uint256",
          "name": "_newDelay",
          "type": "uint256"
        }
      ],
      "name": "setTimelockDelay",
      "outputs": [],
      "stateMutability": "nonpayable",
      "type": "function"
    },
    {
      "inputs": [],
      "name": "signerVersion",
      "outputs": [
        {
          "internalType": "uint256",
          "name": "",
          "type": "uint256"
        }
      ],
      "stateMutability": "view",
      "type": "function"
    },
    {
      "inputs": [
        {
          "internalType": "uint256",
          "name": "",
          "type": "uint256"
        }
      ],
      "name": "signers",
      "outputs": [
        {
          "internalType": "address",
          "name": "",
          "type": "address"
        }
      ],
      "stateMutability": "view",
      "type": "function"
    },
    {
      "inputs": [
        {
          "internalType": "address",
          "name": "_to",
          "type": "address"
        },
        {
          "internalType": "uint256",
          "name": "_value",
          "type": "uint256"
        },
        {
          "internalType": "bytes",
          "name": "_data",
          "type": "bytes"
        }
      ],
      "name": "submitTransaction",
      "outputs": [],
      "stateMutability": "nonpayable",
      "type": "function"
    },
    {
      "inputs": [
        {
          "internalType": "address",
          "name": "_to",
          "type": "address"
        },
        {
          "internalType": "uint256",
          "name": "_value",
          "type": "uint256"
        },
        {
          "internalType": "bytes",
          "name": "_data",
          "type": "bytes"
        },
        {
          "internalType": "bytes",
          "name": "_signature",
          "type": "bytes"
        }
      ],
      "name": "submitWithSignature",
      "outputs": [],
      "stateMutability": "nonpayable",
      "type": "function"
    },
    {
      "inputs": [],
      "name": "threshold",
      "outputs": [
        {
          "internalType": "uint256",
          "name": "",
          "type": "uint256"
        }
      ],
      "stateMutability": "view",
      "type": "function"
    },
    {
      "inputs": [],
      "name": "timelockDelay",
      "outputs": [
        {
          "internalType": "uint256",
          "name": "",
          "type": "uint256"
        }
      ],
      "stateMutability": "view",
      "type": "function"
    },
    {
      "inputs": [
        {
          "internalType": "uint256",
          "name": "",
          "type": "uint256"
        }
      ],
      "name": "transactions",
      "outputs": [
        {
          "internalType": "address",
          "name": "to",
          "type": "address"
        },
        {
          "internalType": "uint256",
          "name": "value",
          "type": "uint256"
        },
        {
          "internalType": "bytes",
          "name": "data",
          "type": "bytes"
        },
        {
          "internalType": "bool",
          "name": "executed",
          "type": "bool"
        },
        {
          "internalType": "uint256",
          "name": "numConfirmations",
          "type": "uint256"
        },
        {
          "internalType": "uint256",
          "name": "submissionTime",
          "type": "uint256"
        },
        {
          "internalType": "uint256",
          "name": "signerVersion",
          "type": "uint256"
        }
      ],
      "stateMutability": "view",
      "type": "function"
    },
    {
      "stateMutability": "payable",
      "type": "receive"
    }
  ],
  "bytecode": "0x6101606040523480156200001257600080fd5b50604051620055a3380380620055a383398181016040528101906200003891906200076f565b6040518060400160405280600e81526020017f4242534e535f50726f746f636f6c0000000000000000000000000000000000008152506040518060400160405280600181526020017f32000000000000000000000000000000000000000000000000000000000000008152506001600081905550620000c26001836200041a60201b90919060201c565b6101208181525050620000e06002826200041a60201b90919060201c565b6101408181525050818051906020012060e08181525050808051906020012061010081815250504660a081815250506200011f6200047260201b60201c565b608081815250503073ffffffffffffffffffffffffffffffffffffffff1660c08173ffffffffffffffffffffffffffffffffffffffff168152505050506000835111620001a3576040517f08c379a00000000000000000000000000000000000000000000000000000000081526004016200019a906200084b565b60405180910390fd5b600082118015620001b5575082518211155b620001f7576040517f08c379a0000000000000000000000000000000000000000000000000000000008152600401620001ee90620008bd565b60405180910390fd5b60005b8351811015620003fa5760008482815181106200021c576200021b620008df565b5b60200260200101519050600073ffffffffffffffffffffffffffffffffffffffff168173ffffffffffffffffffffffffffffffffffffffff160362000298576040517f08c379a00000000000000000000000000000000000000000000000000000000081526004016200028f906200095e565b60405180910390fd5b600460008273ffffffffffffffffffffffffffffffffffffffff1673ffffffffffffffffffffffffffffffffffffffff16815260200190815260200160002060009054906101000a900460ff161562000328576040517f08c379a00000000000000000000000000000000000000000000000000000000081526004016200031f90620009d0565b60405180910390fd5b6001600460008373ffffffffffffffffffffffffffffffffffffffff1673ffffffffffffffffffffffffffffffffffffffff16815260200190815260200160002060006101000a81548160ff0219169083151502179055506003819080600181540180825580915050600190039060005260206000200160009091909190916101000a81548173ffffffffffffffffffffffffffffffffffffffff021916908373ffffffffffffffffffffffffffffffffffffffff160217905550508080620003f19062000a21565b915050620001fa565b508160058190555080600681905550600160078190555050505062000f63565b600060208351101562000440576200043883620004cf60201b60201c565b90506200046c565b8262000452836200053c60201b60201c565b600001908162000463919062000caf565b5060ff60001b90505b92915050565b60007f8b73c3c69bb8fe3d512ecc4cf759cc79239f7b179b0ffacaa9a75d522b39400f60e051610100514630604051602001620004b495949392919062000dd3565b60405160208183030381529060405280519060200120905090565b600080829050601f815111156200051f57826040517f305a27a900000000000000000000000000000000000000000000000000000000815260040162000516919062000e9d565b60405180910390fd5b8051816200052d9062000ef3565b60001c1760001b915050919050565b6000819050919050565b6000604051905090565b600080fd5b600080fd5b600080fd5b6000601f19601f8301169050919050565b7f4e487b7100000000000000000000000000000000000000000000000000000000600052604160045260246000fd5b620005aa826200055f565b810181811067ffffffffffffffff82111715620005cc57620005cb62000570565b5b80604052505050565b6000620005e162000546565b9050620005ef82826200059f565b919050565b600067ffffffffffffffff82111562000612576200061162000570565b5b602082029050602081019050919050565b600080fd5b600073ffffffffffffffffffffffffffffffffffffffff82169050919050565b6000620006558262000628565b9050919050565b620006678162000648565b81146200067357600080fd5b50565b60008151905062000687816200065c565b92915050565b6000620006a46200069e84620005f4565b620005d5565b90508083825260208201905060208402830185811115620006ca57620006c962000623565b5b835b81811015620006f75780620006e2888262000676565b845260208401935050602081019050620006cc565b5050509392505050565b600082601f8301126200071957620007186200055a565b5b81516200072b8482602086016200068d565b91505092915050565b6000819050919050565b620007498162000734565b81146200075557600080fd5b50565b60008151905062000769816200073e565b92915050565b6000806000606084860312156200078b576200078a62000550565b5b600084015167ffffffffffffffff811115620007ac57620007ab62000555565b5b620007ba8682870162000701565b9350506020620007cd8682870162000758565b9250506040620007e08682870162000758565b9150509250925092565b600082825260208201905092915050565b7f4d756c74695369673a205369676e657273207265717569726564000000000000600082015250565b600062000833601a83620007ea565b91506200084082620007fb565b602082019050919050565b60006020820190508181036000830152620008668162000824565b9050919050565b7f4d756c74695369673a20496e76616c6964207468726573686f6c640000000000600082015250565b6000620008a5601b83620007ea565b9150620008b2826200086d565b602082019050919050565b60006020820190508181036000830152620008d88162000896565b9050919050565b7f4e487b7100000000000000000000000000000000000000000000000000000000600052603260045260246000fd5b7f4d756c74695369673a20496e76616c6964207369676e65722061646472657373600082015250565b600062000946602083620007ea565b915062000953826200090e565b602082019050919050565b60006020820190508181036000830152620009798162000937565b9050919050565b7f4d756c74695369673a205369676e6572206e6f7420756e697175650000000000600082015250565b6000620009b8601b83620007ea565b9150620009c58262000980565b602082019050919050565b60006020820190508181036000830152620009eb81620009a9565b9050919050565b7f4e487b7100000000000000000000000000000000000000000000000000000000600052601160045260246000fd5b600062000a2e8262000734565b91507fffffffffffffffffffffffffffffffffffffffffffffffffffffffffffffffff820362000a635762000a62620009f2565b5b600182019050919050565b600081519050919050565b7f4e487b7100000000000000000000000000000000000000000000000000000000600052602260045260246000fd5b6000600282049050600182168062000ac157607f821691505b60208210810362000ad75762000ad662000a79565b5b50919050565b60008190508160005260206000209050919050565b60006020601f8301049050919050565b600082821b905092915050565b60006008830262000b417fffffffffffffffffffffffffffffffffffffffffffffffffffffffffffffffff8262000b02565b62000b4d868362000b02565b95508019841693508086168417925050509392505050565b6000819050919050565b600062000b9062000b8a62000b848462000734565b62000b65565b62000734565b9050919050565b6000819050919050565b62000bac8362000b6f565b62000bc462000bbb8262000b97565b84845462000b0f565b825550505050565b600090565b62000bdb62000bcc565b62000be881848462000ba1565b505050565b5b8181101562000c105762000c0460008262000bd1565b60018101905062000bee565b5050565b601f82111562000c5f5762000c298162000add565b62000c348462000af2565b8101602085101562000c44578190505b62000c5c62000c538562000af2565b83018262000bed565b50505b505050565b600082821c905092915050565b600062000c846000198460080262000c64565b1980831691505092915050565b600062000c9f838362000c71565b9150826002028217905092915050565b62000cba8262000a6e565b67ffffffffffffffff81111562000cd65762000cd562000570565b5b62000ce2825462000aa8565b62000cef82828562000c14565b600060209050601f83116001811462000d27576000841562000d12578287015190505b62000d1e858262000c91565b86555062000d8e565b601f19841662000d378662000add565b60005b8281101562000d615784890151825560018201915060208501945060208101905062000d3a565b8683101562000d81578489015162000d7d601f89168262000c71565b8355505b6001600288020188555050505b505050505050565b6000819050919050565b62000dab8162000d96565b82525050565b62000dbc8162000734565b82525050565b62000dcd8162000648565b82525050565b600060a08201905062000dea600083018862000da0565b62000df9602083018762000da0565b62000e08604083018662000da0565b62000e17606083018562000db1565b62000e26608083018462000dc2565b9695505050505050565b60005b8381101562000e5057808201518184015260208101905062000e33565b60008484015250505050565b600062000e698262000a6e565b62000e758185620007ea565b935062000e8781856020860162000e30565b62000e92816200055f565b840191505092915050565b6000602082019050818103600083015262000eb9818462000e5c565b905092915050565b600081519050919050565b6000819050602082019050919050565b600062000eea825162000d96565b80915050919050565b600062000f008262000ec1565b8262000f0c8462000ecc565b905062000f198162000edc565b9250602082101562000f5c5762000f577fffffffffffffffffffffffffffffffffffffffffffffffffffffffffffffffff8360200360080262000b02565b831692505b5050919050565b60805160a05160c05160e0516101005161012051610140516145e562000fbe60003960006126600152600061262501526000612a9001526000612a6f015260006126e60152600061273c0152600061276501526145e56000f3fe60806040526004361061012e5760003560e01c806380f59a65116100ab578063c01a8c841161006f578063c01a8c8414610421578063c64274741461044a578063c9a7c61d14610473578063eb12d61e1461049c578063ee22610b146104c5578063eef09bad146104ee57610135565b806380f59a651461031c57806384b0196e1461035957806394cf795e1461038a5780639ace38c2146103b5578063af267f8f146103f857610135565b806342cde4e8116100f257806342cde4e81461023757806347f7b011146102625780634b5329bb1461028d578063694e80c3146102b65780637df73e27146102df57610135565b80630e316ab71461013a5780632079fb9a1461016357806320ea8d86146101a05780632e7700f0146101c957806333ea3dc8146101f457610135565b3661013557005b600080fd5b34801561014657600080fd5b50610161600480360381019061015c9190612d0a565b610519565b005b34801561016f57600080fd5b5061018a60048036038101906101859190612d6d565b6108ac565b6040516101979190612da9565b60405180910390f35b3480156101ac57600080fd5b506101c760048036038101906101c29190612d6d565b6108eb565b005b3480156101d557600080fd5b506101de610bc5565b6040516101eb9190612dd3565b60405180910390f35b34801561020057600080fd5b5061021b60048036038101906102169190612d6d565b610bd2565b60405161022e9796959493929190612e99565b60405180910390f35b34801561024357600080fd5b5061024c610cf8565b6040516102599190612dd3565b60405180910390f35b34801561026e57600080fd5b50610277610cfe565b6040516102849190612dd3565b60405180910390f35b34801561029957600080fd5b506102b460048036038101906102af9190612f74565b610d04565b005b3480156102c257600080fd5b506102dd60048036038101906102d89190612d6d565b6110df565b005b3480156102eb57600080fd5b5061030660048036038101906103019190612d0a565b611231565b6040516103139190612fd4565b60405180910390f35b34801561032857600080fd5b50610343600480360381019061033e9190612fef565b611251565b6040516103509190612fd4565b60405180910390f35b34801561036557600080fd5b5061036e611280565b6040516103819796959493929190613196565b60405180910390f35b34801561039657600080fd5b5061039f61132a565b6040516103ac91906132d8565b60405180910390f35b3480156103c157600080fd5b506103dc60048036038101906103d79190612d6d565b6113b8565b6040516103ef9796959493929190612e99565b60405180910390f35b34801561040457600080fd5b5061041f600480360381019061041a9190612d6d565b6114bf565b005b34801561042d57600080fd5b5061044860048036038101906104439190612d6d565b611586565b005b34801561045657600080fd5b50610471600480360381019061046c919061342a565b6118ab565b005b34801561047f57600080fd5b5061049a60048036038101906104959190613499565b611b48565b005b3480156104a857600080fd5b506104c360048036038101906104be9190612d0a565b611f5f565b005b3480156104d157600080fd5b506104ec60048036038101906104e79190612d6d565b6121e2565b005b3480156104fa57600080fd5b506105036125d0565b6040516105109190612dd3565b60405180910390f35b3073ffffffffffffffffffffffffffffffffffffffff163373ffffffffffffffffffffffffffffffffffffffff1614610587576040517f08c379a000000000000000000000000000000000000000000000000000000000815260040161057e9061358c565b60405180910390fd5b600460008273ffffffffffffffffffffffffffffffffffffffff1673ffffffffffffffffffffffffffffffffffffffff16815260200190815260200160002060009054906101000a900460ff16610613576040517f08c379a000000000000000000000000000000000000000000000000000000000815260040161060a906135f8565b60405180910390fd5b60055460016003805490506106289190613647565b1015610669576040517f08c379a0000000000000000000000000000000000000000000000000000000008152600401610660906136ed565b60405180910390fd5b6000600460008373ffffffffffffffffffffffffffffffffffffffff1673ffffffffffffffffffffffffffffffffffffffff16815260200190815260200160002060006101000a81548160ff02191690831515021790555060005b60038054905081101561084d578173ffffffffffffffffffffffffffffffffffffffff16600382815481106106fc576106fb61370d565b5b9060005260206000200160009054906101000a900473ffffffffffffffffffffffffffffffffffffffff1673ffffffffffffffffffffffffffffffffffffffff160361083a57600360016003805490506107569190613647565b815481106107675761076661370d565b5b9060005260206000200160009054906101000a900473ffffffffffffffffffffffffffffffffffffffff16600382815481106107a6576107a561370d565b5b9060005260206000200160006101000a81548173ffffffffffffffffffffffffffffffffffffffff021916908373ffffffffffffffffffffffffffffffffffffffff1602179055506003805480610800576107ff61373c565b5b6001900381819060005260206000200160006101000a81549073ffffffffffffffffffffffffffffffffffffffff0219169055905561084d565b80806108459061376b565b9150506106c4565b50600760008154809291906108619061376b565b91905055508073ffffffffffffffffffffffffffffffffffffffff167f3525e22824a8a7df2c9a6029941c824cf95b6447f1e13d5128fd3826d35afe8b60405160405180910390a250565b600381815481106108bc57600080fd5b906000526020600020016000915054906101000a900473ffffffffffffffffffffffffffffffffffffffff1681565b600460003373ffffffffffffffffffffffffffffffffffffffff1673ffffffffffffffffffffffffffffffffffffffff16815260200190815260200160002060009054906101000a900460ff16610977576040517f08c379a000000000000000000000000000000000000000000000000000000000815260040161096e906135f8565b60405180910390fd5b8060088054905081106109bf576040517f08c379a00000000000000000000000000000000000000000000000000000000081526004016109b690613825565b60405180910390fd5b81600881815481106109d4576109d361370d565b5b906000526020600020906007020160030160009054906101000a900460ff1615610a33576040517f08c379a0000000000000000000000000000000000000000000000000000000008152600401610a2a906138b7565b60405180910390fd5b6009600084815260200190815260200160002060003373ffffffffffffffffffffffffffffffffffffffff1673ffffffffffffffffffffffffffffffffffffffff16815260200190815260200160002060009054906101000a900460ff16610ad0576040517f08c379a0000000000000000000000000000000000000000000000000000000008152600401610ac790613949565b60405180910390fd5b600060088481548110610ae657610ae561370d565b5b906000526020600020906007020190506001816004016000828254610b0b9190613647565b9250508190555060006009600086815260200190815260200160002060003373ffffffffffffffffffffffffffffffffffffffff1673ffffffffffffffffffffffffffffffffffffffff16815260200190815260200160002060006101000a81548160ff0219169083151502179055503373ffffffffffffffffffffffffffffffffffffffff16847f4cd471041f6b9ff47536a54a3d3ab62d0fa9dd5e36c0418b294b1673acb3188160405160405180910390a350505050565b6000600880549050905090565b6000806060600080600080600060088981548110610bf357610bf261370d565b5b906000526020600020906007020190508060000160009054906101000a900473ffffffffffffffffffffffffffffffffffffffff168160010154826002018360030160009054906101000a900460ff16846004015485600501548660060154848054610c5e90613998565b80601f0160208091040260200160405190810160405280929190818152602001828054610c8a90613998565b8015610cd75780601f10610cac57610100808354040283529160200191610cd7565b820191906000526020600020905b815481529060010190602001808311610cba57829003601f168201915b50505050509450975097509750975097509750975050919395979092949650565b60055481565b60075481565b826008805490508110610d4c576040517f08c379a0000000000000000000000000000000000000000000000000000000008152600401610d4390613825565b60405180910390fd5b8360088181548110610d6157610d6061370d565b5b906000526020600020906007020160030160009054906101000a900460ff1615610dc0576040517f08c379a0000000000000000000000000000000000000000000000000000000008152600401610db7906138b7565b60405180910390fd5b6000610e177f032e2dde46db1e029818e8296fd1fe6ae109679d16912e9e5b4ad9d9509ee4e087600754604051602001610dfc939291906139c9565b604051602081830303815290604052805190602001206125d6565b90506000610e7286868080601f016020809104026020016040519081016040528093929190818152602001838380828437600081840152601f19601f82011690508083019250505050505050836125f090919063ffffffff16565b9050600460008273ffffffffffffffffffffffffffffffffffffffff1673ffffffffffffffffffffffffffffffffffffffff16815260200190815260200160002060009054906101000a900460ff16610f00576040517f08c379a0000000000000000000000000000000000000000000000000000000008152600401610ef790613a4c565b60405180910390fd5b6009600088815260200190815260200160002060008273ffffffffffffffffffffffffffffffffffffffff1673ffffffffffffffffffffffffffffffffffffffff16815260200190815260200160002060009054906101000a900460ff1615610f9e576040517f08c379a0000000000000000000000000000000000000000000000000000000008152600401610f9590613ab8565b60405180910390fd5b600060088881548110610fb457610fb361370d565b5b9060005260206000209060070201905060075481600601541461100c576040517f08c379a000000000000000000000000000000000000000000000000000000000815260040161100390613b24565b60405180910390fd5b60018160040160008282546110219190613b44565b925050819055506001600960008a815260200190815260200160002060008473ffffffffffffffffffffffffffffffffffffffff1673ffffffffffffffffffffffffffffffffffffffff16815260200190815260200160002060006101000a81548160ff0219169083151502179055508173ffffffffffffffffffffffffffffffffffffffff16887f15c2f311c9e0f53b50388279894aeff029a3457884a6601e924fca879e12adcc60405160405180910390a35050505050505050565b3073ffffffffffffffffffffffffffffffffffffffff163373ffffffffffffffffffffffffffffffffffffffff161461114d576040517f08c379a00000000000000000000000000000000000000000000000000000000081526004016111449061358c565b60405180910390fd5b60008111611190576040517f08c379a000000000000000000000000000000000000000000000000000000000815260040161118790613bc4565b60405180910390fd5b6003805490508111156111d8576040517f08c379a00000000000000000000000000000000000000000000000000000000081526004016111cf90613c56565b60405180910390fd5b80600581905550600760008154809291906111f29061376b565b91905055507f6c4ce60fd690e1216286a10b875c5662555f10774484e58142cedd7a90781baa816040516112269190612dd3565b60405180910390a150565b60046020528060005260406000206000915054906101000a900460ff1681565b60096020528160005260406000206020528060005260406000206000915091509054906101000a900460ff1681565b60006060806000806000606061129461261c565b61129c612657565b46306000801b600067ffffffffffffffff8111156112bd576112bc6132ff565b5b6040519080825280602002602001820160405280156112eb5781602001602082028036833780820191505090505b507f0f00000000000000000000000000000000000000000000000000000000000000959493929190965096509650965096509650965090919293949596565b606060038054806020026020016040519081016040528092919081815260200182805480156113ae57602002820191906000526020600020905b8160009054906101000a900473ffffffffffffffffffffffffffffffffffffffff1673ffffffffffffffffffffffffffffffffffffffff1681526020019060010190808311611364575b5050505050905090565b600881815481106113c857600080fd5b90600052602060002090600702016000915090508060000160009054906101000a900473ffffffffffffffffffffffffffffffffffffffff169080600101549080600201805461141790613998565b80601f016020809104026020016040519081016040528092919081815260200182805461144390613998565b80156114905780601f1061146557610100808354040283529160200191611490565b820191906000526020600020905b81548152906001019060200180831161147357829003601f168201915b5050505050908060030160009054906101000a900460ff16908060040154908060050154908060060154905087565b3073ffffffffffffffffffffffffffffffffffffffff163373ffffffffffffffffffffffffffffffffffffffff161461152d576040517f08c379a00000000000000000000000000000000000000000000000000000000081526004016115249061358c565b60405180910390fd5b80600681905550600760008154809291906115479061376b565b91905055507f8a7d8891cd862d2d38b016226aa79b708af903623f046817a2855b1516cdd34d8160405161157b9190612dd3565b60405180910390a150565b600460003373ffffffffffffffffffffffffffffffffffffffff1673ffffffffffffffffffffffffffffffffffffffff16815260200190815260200160002060009054906101000a900460ff16611612576040517f08c379a0000000000000000000000000000000000000000000000000000000008152600401611609906135f8565b60405180910390fd5b80600880549050811061165a576040517f08c379a000000000000000000000000000000000000000000000000000000000815260040161165190613825565b60405180910390fd5b816008818154811061166f5761166e61370d565b5b906000526020600020906007020160030160009054906101000a900460ff16156116ce576040517f08c379a00000000000000000000000000000000000000000000000000000000081526004016116c5906138b7565b60405180910390fd5b826009600082815260200190815260200160002060003373ffffffffffffffffffffffffffffffffffffffff1673ffffffffffffffffffffffffffffffffffffffff16815260200190815260200160002060009054906101000a900460ff161561176d576040517f08c379a000000000000000000000000000000000000000000000000000000000815260040161176490613ce8565b60405180910390fd5b6000600885815481106117835761178261370d565b5b906000526020600020906007020190506007548160060154146117db576040517f08c379a00000000000000000000000000000000000000000000000000000000081526004016117d290613d7a565b60405180910390fd5b60018160040160008282546117f09190613b44565b9250508190555060016009600087815260200190815260200160002060003373ffffffffffffffffffffffffffffffffffffffff1673ffffffffffffffffffffffffffffffffffffffff16815260200190815260200160002060006101000a81548160ff0219169083151502179055503373ffffffffffffffffffffffffffffffffffffffff16857f15c2f311c9e0f53b50388279894aeff029a3457884a6601e924fca879e12adcc60405160405180910390a35050505050565b600460003373ffffffffffffffffffffffffffffffffffffffff1673ffffffffffffffffffffffffffffffffffffffff16815260200190815260200160002060009054906101000a900460ff16611937576040517f08c379a000000000000000000000000000000000000000000000000000000000815260040161192e906135f8565b60405180910390fd5b600073ffffffffffffffffffffffffffffffffffffffff168373ffffffffffffffffffffffffffffffffffffffff16036119a6576040517f08c379a000000000000000000000000000000000000000000000000000000000815260040161199d90613de6565b60405180910390fd5b6000600880549050905060086040518060e001604052808673ffffffffffffffffffffffffffffffffffffffff16815260200185815260200184815260200160001515815260200160008152602001428152602001600754815250908060018154018082558091505060019003906000526020600020906007020160009091909190915060008201518160000160006101000a81548173ffffffffffffffffffffffffffffffffffffffff021916908373ffffffffffffffffffffffffffffffffffffffff160217905550602082015181600101556040820151816002019081611a909190613fb2565b5060608201518160030160006101000a81548160ff0219169083151502179055506080820151816004015560a0820151816005015560c0820151816006015550508373ffffffffffffffffffffffffffffffffffffffff163373ffffffffffffffffffffffffffffffffffffffff16827f2ecf8c4571be1f8a0b1e6feaa711128f3f8038e97869aa59d0f595e21f50eaa08686604051611b31929190614084565b60405180910390a4611b4281611586565b50505050565b6000611bba7f2c45a48eed7f91a67152671d214581059b51445e417f2c753b429b23ece9168e88888888604051611b809291906140e4565b6040518091039020600754604051602001611b9f9594939291906140fd565b604051602081830303815290604052805190602001206125d6565b90506000611c1584848080601f016020809104026020016040519081016040528093929190818152602001838380828437600081840152601f19601f82011690508083019250505050505050836125f090919063ffffffff16565b9050600460008273ffffffffffffffffffffffffffffffffffffffff1673ffffffffffffffffffffffffffffffffffffffff16815260200190815260200160002060009054906101000a900460ff16611ca3576040517f08c379a0000000000000000000000000000000000000000000000000000000008152600401611c9a90613a4c565b60405180910390fd5b6000600880549050905060086040518060e001604052808b73ffffffffffffffffffffffffffffffffffffffff1681526020018a815260200189898080601f016020809104026020016040519081016040528093929190818152602001838380828437600081840152601f19601f82011690508083019250505050505050815260200160001515815260200160008152602001428152602001600754815250908060018154018082558091505060019003906000526020600020906007020160009091909190915060008201518160000160006101000a81548173ffffffffffffffffffffffffffffffffffffffff021916908373ffffffffffffffffffffffffffffffffffffffff160217905550602082015181600101556040820151816002019081611dd19190613fb2565b5060608201518160030160006101000a81548160ff0219169083151502179055506080820151816004015560a0820151816005015560c0820151816006015550508873ffffffffffffffffffffffffffffffffffffffff168273ffffffffffffffffffffffffffffffffffffffff16827f2ecf8c4571be1f8a0b1e6feaa711128f3f8038e97869aa59d0f595e21f50eaa08b8b8b604051611e749392919061417d565b60405180910390a460016009600083815260200190815260200160002060008473ffffffffffffffffffffffffffffffffffffffff1673ffffffffffffffffffffffffffffffffffffffff16815260200190815260200160002060006101000a81548160ff021916908315150217905550600160088281548110611efb57611efa61370d565b5b9060005260206000209060070201600401819055508173ffffffffffffffffffffffffffffffffffffffff16817f15c2f311c9e0f53b50388279894aeff029a3457884a6601e924fca879e12adcc60405160405180910390a3505050505050505050565b3073ffffffffffffffffffffffffffffffffffffffff163373ffffffffffffffffffffffffffffffffffffffff1614611fcd576040517f08c379a0000000000000000000000000000000000000000000000000000000008152600401611fc49061358c565b60405180910390fd5b600073ffffffffffffffffffffffffffffffffffffffff168173ffffffffffffffffffffffffffffffffffffffff160361203c576040517f08c379a0000000000000000000000000000000000000000000000000000000008152600401612033906141fb565b60405180910390fd5b600460008273ffffffffffffffffffffffffffffffffffffffff1673ffffffffffffffffffffffffffffffffffffffff16815260200190815260200160002060009054906101000a900460ff16156120c9576040517f08c379a00000000000000000000000000000000000000000000000000000000081526004016120c09061428d565b60405180910390fd5b6001600460008373ffffffffffffffffffffffffffffffffffffffff1673ffffffffffffffffffffffffffffffffffffffff16815260200190815260200160002060006101000a81548160ff0219169083151502179055506003819080600181540180825580915050600190039060005260206000200160009091909190916101000a81548173ffffffffffffffffffffffffffffffffffffffff021916908373ffffffffffffffffffffffffffffffffffffffff160217905550600760008154809291906121979061376b565b91905055508073ffffffffffffffffffffffffffffffffffffffff167f47d1c22a25bb3a5d4e481b9b1e6944c2eade3181a0a20b495ed61d35b5323f2460405160405180910390a250565b600460003373ffffffffffffffffffffffffffffffffffffffff1673ffffffffffffffffffffffffffffffffffffffff16815260200190815260200160002060009054906101000a900460ff1661226e576040517f08c379a0000000000000000000000000000000000000000000000000000000008152600401612265906135f8565b60405180910390fd5b8060088054905081106122b6576040517f08c379a00000000000000000000000000000000000000000000000000000000081526004016122ad90613825565b60405180910390fd5b81600881815481106122cb576122ca61370d565b5b906000526020600020906007020160030160009054906101000a900460ff161561232a576040517f08c379a0000000000000000000000000000000000000000000000000000000008152600401612321906138b7565b60405180910390fd5b612332612692565b6000600884815481106123485761234761370d565b5b90600052602060002090600702019050600554816004015410156123a1576040517f08c379a0000000000000000000000000000000000000000000000000000000008152600401612398906142f9565b60405180910390fd5b60065481600501546123b39190613b44565b4210156123f5576040517f08c379a00000000000000000000000000000000000000000000000000000000081526004016123ec90614365565b60405180910390fd5b60075481600601541461243d576040517f08c379a000000000000000000000000000000000000000000000000000000000815260040161243490613d7a565b60405180910390fd5b60008160000160009054906101000a900473ffffffffffffffffffffffffffffffffffffffff1673ffffffffffffffffffffffffffffffffffffffff168260010154836002016040516124909190614408565b60006040518083038185875af1925050503d80600081146124cd576040519150601f19603f3d011682016040523d82523d6000602084013e6124d2565b606091505b5050905080612516576040517f08c379a000000000000000000000000000000000000000000000000000000000815260040161250d90614491565b60405180910390fd5b60018260030160006101000a81548160ff0219169083151502179055508160000160009054906101000a900473ffffffffffffffffffffffffffffffffffffffff1673ffffffffffffffffffffffffffffffffffffffff163373ffffffffffffffffffffffffffffffffffffffff16867f36dc6b28af1028509a71e5c4781cbffb8dfd765a490d86d461c87271c652915d85600101546040516125b99190612dd3565b60405180910390a450506125cb6126d8565b505050565b60065481565b60006125e96125e36126e2565b83612799565b9050919050565b60008060008061260086866127da565b9250925092506126108282612836565b82935050505092915050565b606061265260017f000000000000000000000000000000000000000000000000000000000000000061299a90919063ffffffff16565b905090565b606061268d60027f000000000000000000000000000000000000000000000000000000000000000061299a90919063ffffffff16565b905090565b6002600054036126ce576040517f3ee5aeb500000000000000000000000000000000000000000000000000000000815260040160405180910390fd5b6002600081905550565b6001600081905550565b60007f000000000000000000000000000000000000000000000000000000000000000073ffffffffffffffffffffffffffffffffffffffff163073ffffffffffffffffffffffffffffffffffffffff1614801561275e57507f000000000000000000000000000000000000000000000000000000000000000046145b1561278b577f00000000000000000000000000000000000000000000000000000000000000009050612796565b612793612a4a565b90505b90565b60006040517f190100000000000000000000000000000000000000000000000000000000000081528360028201528260228201526042812091505092915050565b6000806000604184510361281f5760008060006020870151925060408701519150606087015160001a905061281188828585612ae0565b95509550955050505061282f565b60006002855160001b9250925092505b9250925092565b6000600381111561284a576128496144b1565b5b82600381111561285d5761285c6144b1565b5b03156129965760016003811115612877576128766144b1565b5b82600381111561288a576128896144b1565b5b036128c1576040517ff645eedf00000000000000000000000000000000000000000000000000000000815260040160405180910390fd5b600260038111156128d5576128d46144b1565b5b8260038111156128e8576128e76144b1565b5b0361292d578060001c6040517ffce698f70000000000000000000000000000000000000000000000000000000081526004016129249190612dd3565b60405180910390fd5b6003808111156129405761293f6144b1565b5b826003811115612953576129526144b1565b5b0361299557806040517fd78bce0c00000000000000000000000000000000000000000000000000000000815260040161298c91906144e0565b60405180910390fd5b5b5050565b606060ff60001b83146129b7576129b083612bd4565b9050612a44565b8180546129c390613998565b80601f01602080910402602001604051908101604052809291908181526020018280546129ef90613998565b8015612a3c5780601f10612a1157610100808354040283529160200191612a3c565b820191906000526020600020905b815481529060010190602001808311612a1f57829003601f168201915b505050505090505b92915050565b60007f8b73c3c69bb8fe3d512ecc4cf759cc79239f7b179b0ffacaa9a75d522b39400f7f00000000000000000000000000000000000000000000000000000000000000007f00000000000000000000000000000000000000000000000000000000000000004630604051602001612ac59594939291906144fb565b60405160208183030381529060405280519060200120905090565b60008060007f7fffffffffffffffffffffffffffffff5d576e7357a4501ddfe92f46681b20a08460001c1115612b20576000600385925092509250612bca565b600060018888888860405160008152602001604052604051612b45949392919061456a565b6020604051602081039080840390855afa158015612b67573d6000803e3d6000fd5b505050602060405103519050600073ffffffffffffffffffffffffffffffffffffffff168173ffffffffffffffffffffffffffffffffffffffff1603612bbb57600060016000801b93509350935050612bca565b8060008060001b935093509350505b9450945094915050565b60606000612be183612c48565b90506000602067ffffffffffffffff811115612c0057612bff6132ff565b5b6040519080825280601f01601f191660200182016040528015612c325781602001600182028036833780820191505090505b5090508181528360208201528092505050919050565b60008060ff8360001c169050601f811115612c8f576040517fb3512b0c00000000000000000000000000000000000000000000000000000000815260040160405180910390fd5b80915050919050565b6000604051905090565b600080fd5b600080fd5b600073ffffffffffffffffffffffffffffffffffffffff82169050919050565b6000612cd782612cac565b9050919050565b612ce781612ccc565b8114612cf257600080fd5b50565b600081359050612d0481612cde565b92915050565b600060208284031215612d2057612d1f612ca2565b5b6000612d2e84828501612cf5565b91505092915050565b6000819050919050565b612d4a81612d37565b8114612d5557600080fd5b50565b600081359050612d6781612d41565b92915050565b600060208284031215612d8357612d82612ca2565b5b6000612d9184828501612d58565b91505092915050565b612da381612ccc565b82525050565b6000602082019050612dbe6000830184612d9a565b92915050565b612dcd81612d37565b82525050565b6000602082019050612de86000830184612dc4565b92915050565b600081519050919050565b600082825260208201905092915050565b60005b83811015612e28578082015181840152602081019050612e0d565b60008484015250505050565b6000601f19601f8301169050919050565b6000612e5082612dee565b612e5a8185612df9565b9350612e6a818560208601612e0a565b612e7381612e34565b840191505092915050565b60008115159050919050565b612e9381612e7e565b82525050565b600060e082019050612eae600083018a612d9a565b612ebb6020830189612dc4565b8181036040830152612ecd8188612e45565b9050612edc6060830187612e8a565b612ee96080830186612dc4565b612ef660a0830185612dc4565b612f0360c0830184612dc4565b98975050505050505050565b600080fd5b600080fd5b600080fd5b60008083601f840112612f3457612f33612f0f565b5b8235905067ffffffffffffffff811115612f5157612f50612f14565b5b602083019150836001820283011115612f6d57612f6c612f19565b5b9250929050565b600080600060408486031215612f8d57612f8c612ca2565b5b6000612f9b86828701612d58565b935050602084013567ffffffffffffffff811115612fbc57612fbb612ca7565b5b612fc886828701612f1e565b92509250509250925092565b6000602082019050612fe96000830184612e8a565b92915050565b6000806040838503121561300657613005612ca2565b5b600061301485828601612d58565b925050602061302585828601612cf5565b9150509250929050565b60007fff0000000000000000000000000000000000000000000000000000000000000082169050919050565b6130648161302f565b82525050565b600081519050919050565b600082825260208201905092915050565b60006130918261306a565b61309b8185613075565b93506130ab818560208601612e0a565b6130b481612e34565b840191505092915050565b6000819050919050565b6130d2816130bf565b82525050565b600081519050919050565b600082825260208201905092915050565b6000819050602082019050919050565b61310d81612d37565b82525050565b600061311f8383613104565b60208301905092915050565b6000602082019050919050565b6000613143826130d8565b61314d81856130e3565b9350613158836130f4565b8060005b838110156131895781516131708882613113565b975061317b8361312b565b92505060018101905061315c565b5085935050505092915050565b600060e0820190506131ab600083018a61305b565b81810360208301526131bd8189613086565b905081810360408301526131d18188613086565b90506131e06060830187612dc4565b6131ed6080830186612d9a565b6131fa60a08301856130c9565b81810360c083015261320c8184613138565b905098975050505050505050565b600081519050919050565b600082825260208201905092915050565b6000819050602082019050919050565b61324f81612ccc565b82525050565b60006132618383613246565b60208301905092915050565b6000602082019050919050565b60006132858261321a565b61328f8185613225565b935061329a83613236565b8060005b838110156132cb5781516132b28882613255565b97506132bd8361326d565b92505060018101905061329e565b5085935050505092915050565b600060208201905081810360008301526132f2818461327a565b905092915050565b600080fd5b7f4e487b7100000000000000000000000000000000000000000000000000000000600052604160045260246000fd5b61333782612e34565b810181811067ffffffffffffffff82111715613356576133556132ff565b5b80604052505050565b6000613369612c98565b9050613375828261332e565b919050565b600067ffffffffffffffff821115613395576133946132ff565b5b61339e82612e34565b9050602081019050919050565b82818337600083830152505050565b60006133cd6133c88461337a565b61335f565b9050828152602081018484840111156133e9576133e86132fa565b5b6133f48482856133ab565b509392505050565b600082601f83011261341157613410612f0f565b5b81356134218482602086016133ba565b91505092915050565b60008060006060848603121561344357613442612ca2565b5b600061345186828701612cf5565b935050602061346286828701612d58565b925050604084013567ffffffffffffffff81111561348357613482612ca7565b5b61348f868287016133fc565b9150509250925092565b600080600080600080608087890312156134b6576134b5612ca2565b5b60006134c489828a01612cf5565b96505060206134d589828a01612d58565b955050604087013567ffffffffffffffff8111156134f6576134f5612ca7565b5b61350289828a01612f1e565b9450945050606087013567ffffffffffffffff81111561352557613524612ca7565b5b61353189828a01612f1e565b92509250509295509295509295565b7f4d756c74695369673a204f6e6c792073656c662d63616c6c20616c6c6f776564600082015250565b6000613576602083613075565b915061358182613540565b602082019050919050565b600060208201905081810360008301526135a581613569565b9050919050565b7f4d756c74695369673a204e6f742061207369676e657200000000000000000000600082015250565b60006135e2601683613075565b91506135ed826135ac565b602082019050919050565b60006020820190508181036000830152613611816135d5565b9050919050565b7f4e487b7100000000000000000000000000000000000000000000000000000000600052601160045260246000fd5b600061365282612d37565b915061365d83612d37565b925082820390508181111561367557613674613618565b5b92915050565b7f4d756c74695369673a20427265616b696e67207468726573686f6c642067756160008201527f72647261696c0000000000000000000000000000000000000000000000000000602082015250565b60006136d7602683613075565b91506136e28261367b565b604082019050919050565b60006020820190508181036000830152613706816136ca565b9050919050565b7f4e487b7100000000000000000000000000000000000000000000000000000000600052603260045260246000fd5b7f4e487b7100000000000000000000000000000000000000000000000000000000600052603160045260246000fd5b600061377682612d37565b91507fffffffffffffffffffffffffffffffffffffffffffffffffffffffffffffffff82036137a8576137a7613618565b5b600182019050919050565b7f4d756c74695369673a205472616e73616374696f6e20646f6573206e6f74206560008201527f7869737400000000000000000000000000000000000000000000000000000000602082015250565b600061380f602483613075565b915061381a826137b3565b604082019050919050565b6000602082019050818103600083015261383e81613802565b9050919050565b7f4d756c74695369673a205472616e73616374696f6e20616c726561647920657860008201527f6563757465640000000000000000000000000000000000000000000000000000602082015250565b60006138a1602683613075565b91506138ac82613845565b604082019050919050565b600060208201905081810360008301526138d081613894565b9050919050565b7f4d756c74695369673a205472616e73616374696f6e206e6f7420636f6e66697260008201527f6d65640000000000000000000000000000000000000000000000000000000000602082015250565b6000613933602383613075565b915061393e826138d7565b604082019050919050565b6000602082019050818103600083015261396281613926565b9050919050565b7f4e487b7100000000000000000000000000000000000000000000000000000000600052602260045260246000fd5b600060028204905060018216806139b057607f821691505b6020821081036139c3576139c2613969565b5b50919050565b60006060820190506139de60008301866130c9565b6139eb6020830185612dc4565b6139f86040830184612dc4565b949350505050565b7f4d756c74695369673a20496e76616c6964207369676e65720000000000000000600082015250565b6000613a36601883613075565b9150613a4182613a00565b602082019050919050565b60006020820190508181036000830152613a6581613a29565b9050919050565b7f4d756c74695369673a20416c726561647920636f6e6669726d65640000000000600082015250565b6000613aa2601b83613075565b9150613aad82613a6c565b602082019050919050565b60006020820190508181036000830152613ad181613a95565b9050919050565b7f4d756c74695369673a205369676e657220726f74617465640000000000000000600082015250565b6000613b0e601883613075565b9150613b1982613ad8565b602082019050919050565b60006020820190508181036000830152613b3d81613b01565b9050919050565b6000613b4f82612d37565b9150613b5a83612d37565b9250828201905080821115613b7257613b71613618565b5b92915050565b7f4d756c74695369673a205468726573686f6c64206d757374206265203e203000600082015250565b6000613bae601f83613075565b9150613bb982613b78565b602082019050919050565b60006020820190508181036000830152613bdd81613ba1565b9050919050565b7f4d756c74695369673a205468726573686f6c642065786365656473207369676e60008201527f657220636f756e74000000000000000000000000000000000000000000000000602082015250565b6000613c40602883613075565b9150613c4b82613be4565b604082019050919050565b60006020820190508181036000830152613c6f81613c33565b9050919050565b7f4d756c74695369673a205472616e73616374696f6e20616c726561647920636f60008201527f6e6669726d656400000000000000000000000000000000000000000000000000602082015250565b6000613cd2602783613075565b9150613cdd82613c76565b604082019050919050565b60006020820190508181036000830152613d0181613cc5565b9050919050565b7f4d756c74695369673a205369676e65722073657420726f74617465642073696e60008201527f6365207375626d697373696f6e00000000000000000000000000000000000000602082015250565b6000613d64602d83613075565b9150613d6f82613d08565b604082019050919050565b60006020820190508181036000830152613d9381613d57565b9050919050565b7f4d756c74695369673a20496e76616c6964207461726765742061646472657373600082015250565b6000613dd0602083613075565b9150613ddb82613d9a565b602082019050919050565b60006020820190508181036000830152613dff81613dc3565b9050919050565b60008190508160005260206000209050919050565b60006020601f8301049050919050565b600082821b905092915050565b600060088302613e687fffffffffffffffffffffffffffffffffffffffffffffffffffffffffffffffff82613e2b565b613e728683613e2b565b95508019841693508086168417925050509392505050565b6000819050919050565b6000613eaf613eaa613ea584612d37565b613e8a565b612d37565b9050919050565b6000819050919050565b613ec983613e94565b613edd613ed582613eb6565b848454613e38565b825550505050565b600090565b613ef2613ee5565b613efd818484613ec0565b505050565b5b81811015613f2157613f16600082613eea565b600181019050613f03565b5050565b601f821115613f6657613f3781613e06565b613f4084613e1b565b81016020851015613f4f578190505b613f63613f5b85613e1b565b830182613f02565b50505b505050565b600082821c905092915050565b6000613f8960001984600802613f6b565b1980831691505092915050565b6000613fa28383613f78565b9150826002028217905092915050565b613fbb82612dee565b67ffffffffffffffff811115613fd457613fd36132ff565b5b613fde8254613998565b613fe9828285613f25565b600060209050601f83116001811461401c576000841561400a578287015190505b6140148582613f96565b86555061407c565b601f19841661402a86613e06565b60005b828110156140525784890151825560018201915060208501945060208101905061402d565b8683101561406f578489015161406b601f891682613f78565b8355505b6001600288020188555050505b505050505050565b60006040820190506140996000830185612dc4565b81810360208301526140ab8184612e45565b90509392505050565b600081905092915050565b60006140cb83856140b4565b93506140d88385846133ab565b82840190509392505050565b60006140f18284866140bf565b91508190509392505050565b600060a08201905061411260008301886130c9565b61411f6020830187612d9a565b61412c6040830186612dc4565b61413960608301856130c9565b6141466080830184612dc4565b9695505050505050565b600061415c8385612df9565b93506141698385846133ab565b61417283612e34565b840190509392505050565b60006040820190506141926000830186612dc4565b81810360208301526141a5818486614150565b9050949350505050565b7f4d756c74695369673a20496e76616c6964206164647265737300000000000000600082015250565b60006141e5601983613075565b91506141f0826141af565b602082019050919050565b60006020820190508181036000830152614214816141d8565b9050919050565b7f4d756c74695369673a204164647265737320697320616c72656164792061207360008201527f69676e6572000000000000000000000000000000000000000000000000000000602082015250565b6000614277602583613075565b91506142828261421b565b604082019050919050565b600060208201905081810360008301526142a68161426a565b9050919050565b7f4d756c74695369673a205468726573686f6c64206e6f74206d65740000000000600082015250565b60006142e3601b83613075565b91506142ee826142ad565b602082019050919050565b60006020820190508181036000830152614312816142d6565b9050919050565b7f4d756c74695369673a2054696d656c6f636b2061637469766500000000000000600082015250565b600061434f601983613075565b915061435a82614319565b602082019050919050565b6000602082019050818103600083015261437e81614342565b9050919050565b6000815461439281613998565b61439c81866140b4565b945060018216600081146143b757600181146143cc576143ff565b60ff19831686528115158202860193506143ff565b6143d585613e06565b60005b838110156143f7578154818901526001820191506020810190506143d8565b838801955050505b50505092915050565b60006144148284614385565b915081905092915050565b7f4d756c74695369673a205472616e73616374696f6e20657865637574696f6e2060008201527f6661696c65640000000000000000000000000000000000000000000000000000602082015250565b600061447b602683613075565b91506144868261441f565b604082019050919050565b600060208201905081810360008301526144aa8161446e565b9050919050565b7f4e487b7100000000000000000000000000000000000000000000000000000000600052602160045260246000fd5b60006020820190506144f560008301846130c9565b92915050565b600060a08201905061451060008301886130c9565b61451d60208301876130c9565b61452a60408301866130c9565b6145376060830185612dc4565b6145446080830184612d9a565b9695505050505050565b600060ff82169050919050565b6145648161454e565b82525050565b600060808201905061457f60008301876130c9565b61458c602083018661455b565b61459960408301856130c9565b6145a660608301846130c9565b9594505050505056fea264697066735822122073af74212c79d7f3aa739e32124396474a413e040624d74c3385d15a8409372164736f6c63430008140033",
  "linkReferences": {},
  "deployedLinkReferences": {}
}