{
  "_format": "hh-sol-artifact-1",
  "contractName": "DocumentRegistry",
  "sourceName": "contracts/DocumentRegistry.sol",
  "abi": [
    {
      "inputs": [
        {
          "internalType": "address",
          "name": "_owner",
          "type": "address"
        },
        {
          "internalType": "address",
          "name": "_notaryRegistry",
          "type": "address"
        }
      ],
      "stateMutability": "nonpayable",
      "type": "constructor"
    },
    {
      "inputs": [],
      "name": "ECDSAInvalidSignature",
      "type": "error"
    },
    {
      "inputs": [
        {
          "internalType": "uint256",
          "name": "length",
          "type": "uint256"
        }
      ],
      "name": "ECDSAInvalidSignatureLength",
      "type": "error"
    },
    {
      "inputs": [
        {
          "internalType": "bytes32",
          "name": "s",
          "type": "bytes32"
        }
      ],
      "name": "ECDSAInvalidSignatureS",
      "type": "error"
    },
    {
      "inputs": [],
      "name": "EnforcedPause",
      "type": "error"
    },
    {
      "inputs": [],
      "name": "ExpectedPause",
      "type": "error"
    },
    {
      "inputs": [],
      "name": "InvalidShortString",
      "type": "error"
    },
    {
      "inputs": [
        {
          "internalType": "address",
          "name": "owner",
          "type": "address"
        }
      ],
      "name": "OwnableInvalidOwner",
      "type": "error"
    },
    {
      "inputs": [
        {
          "internalType": "address",
          "name": "account",
          "type": "address"
        }
      ],
      "name": "OwnableUnauthorizedAccount",
      "type": "error"
    },
    {
      "inputs": [],
      "name": "ReentrancyGuardReentrantCall",
      "type": "error"
    },
    {
      "inputs": [
        {
          "internalType": "string",
          "name": "str",
          "type": "string"
        }
      ],
      "name": "StringTooLong",
      "type": "error"
    },
    {
      "anonymous": false,
      "inputs": [
        {
          "indexed": true,
          "internalType": "bytes32",
          "name": "docHash",
          "type": "bytes32"
        },
        {
          "indexed": true,
          "internalType": "address",
          "name": "notary",
          "type": "address"
        },
        {
          "indexed": false,
          "internalType": "enum DocumentRegistry.Status",
          "name": "status",
          "type": "uint8"
        },
        {
          "indexed": false,
          "internalType": "uint256",
          "name": "timestamp",
          "type": "uint256"
        }
      ],
      "name": "DocumentRecorded",
      "type": "event"
    },
    {
      "anonymous": false,
      "inputs": [],
      "name": "EIP712DomainChanged",
      "type": "event"
    },
    {
      "anonymous": false,
      "inputs": [
        {
          "indexed": false,
          "internalType": "string",
          "name": "targetId",
          "type": "string"
        },
        {
          "indexed": false,
          "internalType": "string",
          "name": "actionType",
          "type": "string"
        },
        {
          "indexed": true,
          "internalType": "address",
          "name": "executor",
          "type": "address"
        },
        {
          "indexed": false,
          "internalType": "uint256",
          "name": "timestamp",
          "type": "uint256"
        }
      ],
      "name": "GovernanceActionRecorded",
      "type": "event"
    },
    {
      "anonymous": false,
      "inputs": [
        {
          "indexed": true,
          "internalType": "uint256",
          "name": "proposalId",
          "type": "uint256"
        },
        {
          "indexed": true,
          "internalType": "address",
          "name": "voter",
          "type": "address"
        },
        {
          "indexed": false,
          "internalType": "string",
          "name": "decision",
          "type": "string"
        },
        {
          "indexed": false,
          "internalType": "string",
          "name": "signature",
          "type": "string"
        },
        {
          "indexed": false,
          "internalType": "uint256",
          "name": "timestamp",
          "type": "uint256"
        }
      ],
      "name": "GovernanceVoteRecorded",
      "type": "event"
    },
    {
      "anonymous": false,
      "inputs": [
        {
          "indexed": true,
          "internalType": "address",
          "name": "previousOwner",
          "type": "address"
        },
        {
          "indexed": true,
          "internalType": "address",
          "name": "newOwner",
          "type": "address"
        }
      ],
      "name": "OwnershipTransferred",
      "type": "event"
    },
    {
      "anonymous": false,
      "inputs": [
        {
          "indexed": false,
          "internalType": "address",
          "name": "account",
          "type": "address"
        }
      ],
      "name": "Paused",
      "type": "event"
    },
    {
      "anonymous": false,
      "inputs": [
        {
          "indexed": false,
          "internalType": "address",
          "name": "account",
          "type": "address"
        }
      ],
      "name": "Unpaused",
      "type": "event"
    },
    {
      "inputs": [
        {
          "internalType": "bytes32",
          "name": "",
          "type": "bytes32"
        }
      ],
      "name": "documents",
      "outputs": [
        {
          "internalType": "address",
          "name": "notary",
          "type": "address"
        },
        {
          "internalType": "uint256",
          "name": "timestamp",
          "type": "uint256"
        },
        {
          "internalType": "enum DocumentRegistry.Status",
          "name": "status",
          "type": "uint8"
        },
        {
          "internalType": "bool",
          "name": "exists",
          "type": "bool"
        }
      ],
      "stateMutability": "view",
      "type": "function"
    },
    {
      "inputs": [],
      "name": "eip712Domain",
      "outputs": [
        {
          "internalType": "bytes1",
          "name": "fields",
          "type": "bytes1"
        },
        {
          "internalType": "string",
          "name": "name",
          "type": "string"
        },
        {
          "internalType": "string",
          "name": "version",
          "type": "string"
        },
        {
          "internalType": "uint256",
          "name": "chainId",
          "type": "uint256"
        },
        {
          "internalType": "address",
          "name": "verifyingContract",
          "type": "address"
        },
        {
          "internalType": "bytes32",
          "name": "salt",
          "type": "bytes32"
        },
        {
          "internalType": "uint256[]",
          "name": "extensions",
          "type": "uint256[]"
        }
      ],
      "stateMutability": "view",
      "type": "function"
    },
    {
      "inputs": [
        {
          "internalType": "bytes32",
          "name": "docHash",
          "type": "bytes32"
        }
      ],
      "name": "getDocument",
      "outputs": [
        {
          "internalType": "address",
          "name": "notary",
          "type": "address"
        },
        {
          "internalType": "uint256",
          "name": "timestamp",
          "type": "uint256"
        },
        {
          "internalType": "enum DocumentRegistry.Status",
          "name": "status",
          "type": "uint8"
        },
        {
          "internalType": "bool",
          "name": "exists",
          "type": "bool"
        }
      ],
      "stateMutability": "view",
      "type": "function"
    },
    {
      "inputs": [],
      "name": "notaryRegistry",
      "outputs": [
        {
          "internalType": "contract INotaryRegistry",
          "name": "",
          "type": "address"
        }
      ],
      "stateMutability": "view",
      "type": "function"
    },
    {
      "inputs": [],
      "name": "owner",
      "outputs": [
        {
          "internalType": "address",
          "name": "",
          "type": "address"
        }
      ],
      "stateMutability": "view",
      "type": "function"
    },
    {
      "inputs": [],
      "name": "pause",
      "outputs": [],
      "stateMutability": "nonpayable",
      "type": "function"
    },
    {
      "inputs": [],
      "name": "paused",
      "outputs": [
        {
          "internalType": "bool",
          "name": "",
          "type": "bool"
        }
      ],
      "stateMutability": "view",
      "type": "function"
    },
    {
      "inputs": [
        {
          "internalType": "bytes32",
          "name": "docHash",
          "type": "bytes32"
        },
        {
          "internalType": "uint8",
          "name": "status",
          "type": "uint8"
        },
        {
          "internalType": "uint256",
          "name": "timestamp",
          "type": "uint256"
        },
        {
          "internalType": "bytes",
          "name": "signature",
          "type": "bytes"
        }
      ],
      "name": "recordAction",
      "outputs": [],
      "stateMutability": "nonpayable",
      "type": "function"
    },
    {
      "inputs": [
        {
          "internalType": "string",
          "name": "targetId",
          "type": "string"
        },
        {
          "internalType": "string",
          "name": "actionType",
          "type": "string"
        },
        {
          "internalType": "address",
          "name": "executor",
          "type": "address"
        }
      ],
      "name": "recordGovernanceAction",
      "outputs": [],
      "stateMutability": "nonpayable",
      "type": "function"
    },
    {
      "inputs": [
        {
          "internalType": "uint256",
          "name": "proposalId",
          "type": "uint256"
        },
        {
          "internalType": "address",
          "name": "voter",
          "type": "address"
        },
        {
          "internalType": "string",
          "name": "decision",
          "type": "string"
        },
        {
          "internalType": "string",
          "name": "signature",
          "type": "string"
        }
      ],
      "name": "recordVote",
      "outputs": [],
      "stateMutability": "nonpayable",
      "type": "function"
    },
    {
      "inputs": [],
      "name": "renounceOwnership",
      "outputs": [],
      "stateMutability": "nonpayable",
      "type": "function"
    },
    {
      "inputs": [
        {
          "internalType": "address",
          "name": "newOwner",
          "type": "address"
        }
      ],
      "name": "transferOwnership",
      "outputs": [],
      "stateMutability": "nonpayable",
      "type": "function"
    },
    {
      "inputs": [],
      "name": "unpause",
      "outputs": [],
      "stateMutability": "nonpayable",
      "type": "function"
    },
    {
      "inputs": [
        {
          "internalType": "bytes32",
          "name": "",
          "type": "bytes32"
        }
      ],
      "name": "usedSignatures",
      "outputs": [
        {
          "internalType": "bool",
          "name": "",
          "type": "bool"
        }
      ],
      "stateMutability": "view",
      "type": "function"
    }
  ],
  "bytecode": "0x6101606040523480156200001257600080fd5b5060405162002d9e38038062002d9e833981810160405281019062000038919062000487565b6040518060400160405280600e81526020017f4242534e535f50726f746f636f6c0000000000000000000000000000000000008152506040518060400160405280600181526020017f310000000000000000000000000000000000000000000000000000000000000081525083600073ffffffffffffffffffffffffffffffffffffffff168173ffffffffffffffffffffffffffffffffffffffff16036200011a5760006040517f1e4fbdf7000000000000000000000000000000000000000000000000000000008152600401620001119190620004df565b60405180910390fd5b6200012b816200022d60201b60201c565b5062000142600183620002f160201b90919060201c565b610120818152505062000160600282620002f160201b90919060201c565b6101408181525050818051906020012060e08181525050808051906020012061010081815250504660a081815250506200019f6200034960201b60201c565b608081815250503073ffffffffffffffffffffffffffffffffffffffff1660c08173ffffffffffffffffffffffffffffffffffffffff16815250505050600160038190555080600460016101000a81548173ffffffffffffffffffffffffffffffffffffffff021916908373ffffffffffffffffffffffffffffffffffffffff160217905550505062000a3b565b60008060009054906101000a900473ffffffffffffffffffffffffffffffffffffffff169050816000806101000a81548173ffffffffffffffffffffffffffffffffffffffff021916908373ffffffffffffffffffffffffffffffffffffffff1602179055508173ffffffffffffffffffffffffffffffffffffffff168173ffffffffffffffffffffffffffffffffffffffff167f8be0079c531659141344cd1fd0a4f28419497f9722a3daafe3b4186f6b6457e060405160405180910390a35050565b600060208351101562000317576200030f83620003a660201b60201c565b905062000343565b8262000329836200041360201b60201c565b60000190816200033a919062000776565b5060ff60001b90505b92915050565b60007f8b73c3c69bb8fe3d512ecc4cf759cc79239f7b179b0ffacaa9a75d522b39400f60e0516101005146306040516020016200038b95949392919062000889565b60405160208183030381529060405280519060200120905090565b600080829050601f81511115620003f657826040517f305a27a9000000000000000000000000000000000000000000000000000000008152600401620003ed919062000975565b60405180910390fd5b8051816200040490620009cb565b60001c1760001b915050919050565b6000819050919050565b600080fd5b600073ffffffffffffffffffffffffffffffffffffffff82169050919050565b60006200044f8262000422565b9050919050565b620004618162000442565b81146200046d57600080fd5b50565b600081519050620004818162000456565b92915050565b60008060408385031215620004a157620004a06200041d565b5b6000620004b18582860162000470565b9250506020620004c48582860162000470565b9150509250929050565b620004d98162000442565b82525050565b6000602082019050620004f66000830184620004ce565b92915050565b600081519050919050565b7f4e487b7100000000000000000000000000000000000000000000000000000000600052604160045260246000fd5b7f4e487b7100000000000000000000000000000000000000000000000000000000600052602260045260246000fd5b600060028204905060018216806200057e57607f821691505b60208210810362000594576200059362000536565b5b50919050565b60008190508160005260206000209050919050565b60006020601f8301049050919050565b600082821b905092915050565b600060088302620005fe7fffffffffffffffffffffffffffffffffffffffffffffffffffffffffffffffff82620005bf565b6200060a8683620005bf565b95508019841693508086168417925050509392505050565b6000819050919050565b6000819050919050565b600062000657620006516200064b8462000622565b6200062c565b62000622565b9050919050565b6000819050919050565b620006738362000636565b6200068b62000682826200065e565b848454620005cc565b825550505050565b600090565b620006a262000693565b620006af81848462000668565b505050565b5b81811015620006d757620006cb60008262000698565b600181019050620006b5565b5050565b601f8211156200072657620006f0816200059a565b620006fb84620005af565b810160208510156200070b578190505b620007236200071a85620005af565b830182620006b4565b50505b505050565b600082821c905092915050565b60006200074b600019846008026200072b565b1980831691505092915050565b600062000766838362000738565b9150826002028217905092915050565b6200078182620004fc565b67ffffffffffffffff8111156200079d576200079c62000507565b5b620007a9825462000565565b620007b6828285620006db565b600060209050601f831160018114620007ee5760008415620007d9578287015190505b620007e5858262000758565b86555062000855565b601f198416620007fe866200059a565b60005b82811015620008285784890151825560018201915060208501945060208101905062000801565b8683101562000848578489015162000844601f89168262000738565b8355505b6001600288020188555050505b505050505050565b6000819050919050565b62000872816200085d565b82525050565b620008838162000622565b82525050565b600060a082019050620008a0600083018862000867565b620008af602083018762000867565b620008be604083018662000867565b620008cd606083018562000878565b620008dc6080830184620004ce565b9695505050505050565b600082825260208201905092915050565b60005b8381101562000917578082015181840152602081019050620008fa565b60008484015250505050565b6000601f19601f8301169050919050565b60006200094182620004fc565b6200094d8185620008e6565b93506200095f818560208601620008f7565b6200096a8162000923565b840191505092915050565b6000602082019050818103600083015262000991818462000934565b905092915050565b600081519050919050565b6000819050602082019050919050565b6000620009c282516200085d565b80915050919050565b6000620009d88262000999565b82620009e484620009a4565b9050620009f181620009b4565b9250602082101562000a345762000a2f7fffffffffffffffffffffffffffffffffffffffffffffffffffffffffffffffff83602003600802620005bf565b831692505b5050919050565b60805160a05160c05160e05161010051610120516101405161230862000a966000396000610e8b01526000610e50015260006112b30152600061129201526000610f0901526000610f5f01526000610f8801526123086000f3fe608060405234801561001057600080fd5b50600436106100ea5760003560e01c80638456cb591161008c578063ac55997911610066578063ac559979146101f6578063b10d6b4114610212578063f2fde38b14610245578063f978fd6114610261576100ea565b80638456cb59146101aa57806384b0196e146101b45780638da5cb5b146101d8576100ea565b80633f4ba83a116100c85780633f4ba83a1461015c5780635c975abb14610166578063715018a6146101845780637ca6a6041461018e576100ea565b80632105e01c146100ef5780632b2805db1461010b5780632cd1b6711461013e575b600080fd5b610109600480360381019061010491906115c8565b610291565b005b610125600480360381019061012091906116a5565b6102f8565b6040516101359493929190611782565b60405180910390f35b610146610362565b6040516101539190611826565b60405180910390f35b610164610388565b005b61016e61039a565b60405161017b9190611841565b60405180910390f35b61018c6103b1565b005b6101a860048036038101906101a391906119d6565b6103c5565b005b6101b261086d565b005b6101bc61087f565b6040516101cf9796959493929190611be0565b60405180910390f35b6101e0610929565b6040516101ed9190611c64565b60405180910390f35b610210600480360381019061020b9190611c7f565b610952565b005b61022c600480360381019061022791906116a5565b6109b7565b60405161023c9493929190611782565b60405180910390f35b61025f600480360381019061025a9190611d14565b610ab9565b005b61027b600480360381019061027691906116a5565b610b3f565b6040516102889190611841565b60405180910390f35b610299610b5f565b8473ffffffffffffffffffffffffffffffffffffffff16867fe2b5deb66e37b389c35f4d14a4214a4da89c4b282fef21d40e6eed118f23a25886868686426040516102e8959493929190611d6e565b60405180910390a3505050505050565b60056020528060005260406000206000915090508060000160009054906101000a900473ffffffffffffffffffffffffffffffffffffffff16908060010154908060020160009054906101000a900460ff16908060020160019054906101000a900460ff16905084565b600460019054906101000a900473ffffffffffffffffffffffffffffffffffffffff1681565b610390610b5f565b610398610be6565b565b6000600460009054906101000a900460ff16905090565b6103b9610b5f565b6103c36000610c49565b565b6103cd610d0d565b6103d5610d4e565b6005600085815260200190815260200160002060020160019054906101000a900460ff1615610439576040517f08c379a000000000000000000000000000000000000000000000000000000000815260040161043090611e29565b60405180910390fd5b6001600281111561044d5761044c6116f0565b5b60ff168360ff161480610477575060028081111561046e5761046d6116f0565b5b60ff168360ff16145b6104b6576040517f08c379a00000000000000000000000000000000000000000000000000000000081526004016104ad90611e95565b60405180910390fd5b600061050d7f1820fcd52085d3411a25aa027986cbe7c36d8c9f0bc3e4e7613fc74f3ca1ae718686866040516020016104f29493929190611ec4565b60405160208183030381529060405280519060200120610d94565b90506006600082815260200190815260200160002060009054906101000a900460ff1615610570576040517f08c379a000000000000000000000000000000000000000000000000000000000815260040161056790611f7b565b60405180910390fd5b60006105858383610dae90919063ffffffff16565b9050600460019054906101000a900473ffffffffffffffffffffffffffffffffffffffff1673ffffffffffffffffffffffffffffffffffffffff1663f13eed97826040518263ffffffff1660e01b81526004016105e29190611c64565b602060405180830381865afa1580156105ff573d6000803e3d6000fd5b505050506040513d601f19601f820116820180604052508101906106239190611fc7565b610662576040517f08c379a000000000000000000000000000000000000000000000000000000000815260040161065990612066565b60405180910390fd5b620151808461067191906120b5565b4211156106b3576040517f08c379a00000000000000000000000000000000000000000000000000000000081526004016106aa9061215b565b60405180910390fd5b60405180608001604052808273ffffffffffffffffffffffffffffffffffffffff1681526020014281526020018660ff1660028111156106f6576106f56116f0565b5b6002811115610708576107076116f0565b5b8152602001600115158152506005600088815260200190815260200160002060008201518160000160006101000a81548173ffffffffffffffffffffffffffffffffffffffff021916908373ffffffffffffffffffffffffffffffffffffffff1602179055506020820151816001015560408201518160020160006101000a81548160ff021916908360028111156107a3576107a26116f0565b5b021790555060608201518160020160016101000a81548160ff02191690831515021790555090505060016006600084815260200190815260200160002060006101000a81548160ff0219169083151502179055508073ffffffffffffffffffffffffffffffffffffffff16867f4b8ba3dc4bbed13847d13918dfc1b8c5654576943911d41395ab521a9a939b7c8760ff166002811115610846576108456116f0565b5b4260405161085592919061217b565b60405180910390a35050610867610dda565b50505050565b610875610b5f565b61087d610de4565b565b600060608060008060006060610893610e47565b61089b610e82565b46306000801b600067ffffffffffffffff8111156108bc576108bb6118ab565b5b6040519080825280602002602001820160405280156108ea5781602001602082028036833780820191505090505b507f0f00000000000000000000000000000000000000000000000000000000000000959493929190965096509650965096509650965090919293949596565b60008060009054906101000a900473ffffffffffffffffffffffffffffffffffffffff16905090565b61095a610b5f565b8073ffffffffffffffffffffffffffffffffffffffff167f87276d24b7cd6b1e725fd511335852216e890cad7da53bdb0ab53545edc8139586868686426040516109a8959493929190611d6e565b60405180910390a25050505050565b6000806000806000600560008781526020019081526020016000206040518060800160405290816000820160009054906101000a900473ffffffffffffffffffffffffffffffffffffffff1673ffffffffffffffffffffffffffffffffffffffff1673ffffffffffffffffffffffffffffffffffffffff168152602001600182015481526020016002820160009054906101000a900460ff166002811115610a6257610a616116f0565b5b6002811115610a7457610a736116f0565b5b81526020016002820160019054906101000a900460ff161515151581525050905080600001518160200151826040015183606001519450945094509450509193509193565b610ac1610b5f565b600073ffffffffffffffffffffffffffffffffffffffff168173ffffffffffffffffffffffffffffffffffffffff1603610b335760006040517f1e4fbdf7000000000000000000000000000000000000000000000000000000008152600401610b2a9190611c64565b60405180910390fd5b610b3c81610c49565b50565b60066020528060005260406000206000915054906101000a900460ff1681565b610b67610ebd565b73ffffffffffffffffffffffffffffffffffffffff16610b85610929565b73ffffffffffffffffffffffffffffffffffffffff1614610be457610ba8610ebd565b6040517f118cdaa7000000000000000000000000000000000000000000000000000000008152600401610bdb9190611c64565b60405180910390fd5b565b610bee610ec5565b6000600460006101000a81548160ff0219169083151502179055507f5db9ee0a495bf2e6ff9c91a7834c1ba4fdd244a5e8aa4e537bd38aeae4b073aa610c32610ebd565b604051610c3f9190611c64565b60405180910390a1565b60008060009054906101000a900473ffffffffffffffffffffffffffffffffffffffff169050816000806101000a81548173ffffffffffffffffffffffffffffffffffffffff021916908373ffffffffffffffffffffffffffffffffffffffff1602179055508173ffffffffffffffffffffffffffffffffffffffff168173ffffffffffffffffffffffffffffffffffffffff167f8be0079c531659141344cd1fd0a4f28419497f9722a3daafe3b4186f6b6457e060405160405180910390a35050565b610d1561039a565b15610d4c576040517fd93c066500000000000000000000000000000000000000000000000000000000815260040160405180910390fd5b565b600260035403610d8a576040517f3ee5aeb500000000000000000000000000000000000000000000000000000000815260040160405180910390fd5b6002600381905550565b6000610da7610da1610f05565b83610fbc565b9050919050565b600080600080610dbe8686610ffd565b925092509250610dce8282611059565b82935050505092915050565b6001600381905550565b610dec610d0d565b6001600460006101000a81548160ff0219169083151502179055507f62e78cea01bee320cd4e420270b5ea74000d11b0c9f74754ebdbfc544b05a258610e30610ebd565b604051610e3d9190611c64565b60405180910390a1565b6060610e7d60017f00000000000000000000000000000000000000000000000000000000000000006111bd90919063ffffffff16565b905090565b6060610eb860027f00000000000000000000000000000000000000000000000000000000000000006111bd90919063ffffffff16565b905090565b600033905090565b610ecd61039a565b610f03576040517f8dfc202b00000000000000000000000000000000000000000000000000000000815260040160405180910390fd5b565b60007f000000000000000000000000000000000000000000000000000000000000000073ffffffffffffffffffffffffffffffffffffffff163073ffffffffffffffffffffffffffffffffffffffff16148015610f8157507f000000000000000000000000000000000000000000000000000000000000000046145b15610fae577f00000000000000000000000000000000000000000000000000000000000000009050610fb9565b610fb661126d565b90505b90565b60006040517f190100000000000000000000000000000000000000000000000000000000000081528360028201528260228201526042812091505092915050565b600080600060418451036110425760008060006020870151925060408701519150606087015160001a905061103488828585611303565b955095509550505050611052565b60006002855160001b9250925092505b9250925092565b6000600381111561106d5761106c6116f0565b5b8260038111156110805761107f6116f0565b5b03156111b9576001600381111561109a576110996116f0565b5b8260038111156110ad576110ac6116f0565b5b036110e4576040517ff645eedf00000000000000000000000000000000000000000000000000000000815260040160405180910390fd5b600260038111156110f8576110f76116f0565b5b82600381111561110b5761110a6116f0565b5b03611150578060001c6040517ffce698f700000000000000000000000000000000000000000000000000000000815260040161114791906121a4565b60405180910390fd5b600380811115611163576111626116f0565b5b826003811115611176576111756116f0565b5b036111b857806040517fd78bce0c0000000000000000000000000000000000000000000000000000000081526004016111af91906121bf565b60405180910390fd5b5b5050565b606060ff60001b83146111da576111d3836113f7565b9050611267565b8180546111e690612209565b80601f016020809104026020016040519081016040528092919081815260200182805461121290612209565b801561125f5780601f106112345761010080835404028352916020019161125f565b820191906000526020600020905b81548152906001019060200180831161124257829003601f168201915b505050505090505b92915050565b60007f8b73c3c69bb8fe3d512ecc4cf759cc79239f7b179b0ffacaa9a75d522b39400f7f00000000000000000000000000000000000000000000000000000000000000007f000000000000000000000000000000000000000000000000000000000000000046306040516020016112e895949392919061223a565b60405160208183030381529060405280519060200120905090565b60008060007f7fffffffffffffffffffffffffffffff5d576e7357a4501ddfe92f46681b20a08460001c11156113435760006003859250925092506113ed565b600060018888888860405160008152602001604052604051611368949392919061228d565b6020604051602081039080840390855afa15801561138a573d6000803e3d6000fd5b505050602060405103519050600073ffffffffffffffffffffffffffffffffffffffff168173ffffffffffffffffffffffffffffffffffffffff16036113de57600060016000801b935093509350506113ed565b8060008060001b935093509350505b9450945094915050565b606060006114048361146b565b90506000602067ffffffffffffffff811115611423576114226118ab565b5b6040519080825280601f01601f1916602001820160405280156114555781602001600182028036833780820191505090505b5090508181528360208201528092505050919050565b60008060ff8360001c169050601f8111156114b2576040517fb3512b0c00000000000000000000000000000000000000000000000000000000815260040160405180910390fd5b80915050919050565b6000604051905090565b600080fd5b600080fd5b6000819050919050565b6114e2816114cf565b81146114ed57600080fd5b50565b6000813590506114ff816114d9565b92915050565b600073ffffffffffffffffffffffffffffffffffffffff82169050919050565b600061153082611505565b9050919050565b61154081611525565b811461154b57600080fd5b50565b60008135905061155d81611537565b92915050565b600080fd5b600080fd5b600080fd5b60008083601f84011261158857611587611563565b5b8235905067ffffffffffffffff8111156115a5576115a4611568565b5b6020830191508360018202830111156115c1576115c061156d565b5b9250929050565b600080600080600080608087890312156115e5576115e46114c5565b5b60006115f389828a016114f0565b965050602061160489828a0161154e565b955050604087013567ffffffffffffffff811115611625576116246114ca565b5b61163189828a01611572565b9450945050606087013567ffffffffffffffff811115611654576116536114ca565b5b61166089828a01611572565b92509250509295509295509295565b6000819050919050565b6116828161166f565b811461168d57600080fd5b50565b60008135905061169f81611679565b92915050565b6000602082840312156116bb576116ba6114c5565b5b60006116c984828501611690565b91505092915050565b6116db81611525565b82525050565b6116ea816114cf565b82525050565b7f4e487b7100000000000000000000000000000000000000000000000000000000600052602160045260246000fd5b600381106117305761172f6116f0565b5b50565b60008190506117418261171f565b919050565b600061175182611733565b9050919050565b61176181611746565b82525050565b60008115159050919050565b61177c81611767565b82525050565b600060808201905061179760008301876116d2565b6117a460208301866116e1565b6117b16040830185611758565b6117be6060830184611773565b95945050505050565b6000819050919050565b60006117ec6117e76117e284611505565b6117c7565b611505565b9050919050565b60006117fe826117d1565b9050919050565b6000611810826117f3565b9050919050565b61182081611805565b82525050565b600060208201905061183b6000830184611817565b92915050565b60006020820190506118566000830184611773565b92915050565b600060ff82169050919050565b6118728161185c565b811461187d57600080fd5b50565b60008135905061188f81611869565b92915050565b600080fd5b6000601f19601f8301169050919050565b7f4e487b7100000000000000000000000000000000000000000000000000000000600052604160045260246000fd5b6118e38261189a565b810181811067ffffffffffffffff82111715611902576119016118ab565b5b80604052505050565b60006119156114bb565b905061192182826118da565b919050565b600067ffffffffffffffff821115611941576119406118ab565b5b61194a8261189a565b9050602081019050919050565b82818337600083830152505050565b600061197961197484611926565b61190b565b90508281526020810184848401111561199557611994611895565b5b6119a0848285611957565b509392505050565b600082601f8301126119bd576119bc611563565b5b81356119cd848260208601611966565b91505092915050565b600080600080608085870312156119f0576119ef6114c5565b5b60006119fe87828801611690565b9450506020611a0f87828801611880565b9350506040611a20878288016114f0565b925050606085013567ffffffffffffffff811115611a4157611a406114ca565b5b611a4d878288016119a8565b91505092959194509250565b60007fff0000000000000000000000000000000000000000000000000000000000000082169050919050565b611a8e81611a59565b82525050565b600081519050919050565b600082825260208201905092915050565b60005b83811015611ace578082015181840152602081019050611ab3565b60008484015250505050565b6000611ae582611a94565b611aef8185611a9f565b9350611aff818560208601611ab0565b611b088161189a565b840191505092915050565b611b1c8161166f565b82525050565b600081519050919050565b600082825260208201905092915050565b6000819050602082019050919050565b611b57816114cf565b82525050565b6000611b698383611b4e565b60208301905092915050565b6000602082019050919050565b6000611b8d82611b22565b611b978185611b2d565b9350611ba283611b3e565b8060005b83811015611bd3578151611bba8882611b5d565b9750611bc583611b75565b925050600181019050611ba6565b5085935050505092915050565b600060e082019050611bf5600083018a611a85565b8181036020830152611c078189611ada565b90508181036040830152611c1b8188611ada565b9050611c2a60608301876116e1565b611c3760808301866116d2565b611c4460a0830185611b13565b81810360c0830152611c568184611b82565b905098975050505050505050565b6000602082019050611c7960008301846116d2565b92915050565b600080600080600060608688031215611c9b57611c9a6114c5565b5b600086013567ffffffffffffffff811115611cb957611cb86114ca565b5b611cc588828901611572565b9550955050602086013567ffffffffffffffff811115611ce857611ce76114ca565b5b611cf488828901611572565b93509350506040611d078882890161154e565b9150509295509295909350565b600060208284031215611d2a57611d296114c5565b5b6000611d388482850161154e565b91505092915050565b6000611d4d8385611a9f565b9350611d5a838584611957565b611d638361189a565b840190509392505050565b60006060820190508181036000830152611d89818789611d41565b90508181036020830152611d9e818587611d41565b9050611dad60408301846116e1565b9695505050505050565b7f446f63756d656e7452656769737472793a205265636f726420616c726561647960008201527f2065786973747300000000000000000000000000000000000000000000000000602082015250565b6000611e13602783611a9f565b9150611e1e82611db7565b604082019050919050565b60006020820190508181036000830152611e4281611e06565b9050919050565b7f446f63756d656e7452656769737472793a20496e76616c696420737461747573600082015250565b6000611e7f602083611a9f565b9150611e8a82611e49565b602082019050919050565b60006020820190508181036000830152611eae81611e72565b9050919050565b611ebe8161185c565b82525050565b6000608082019050611ed96000830187611b13565b611ee66020830186611b13565b611ef36040830185611eb5565b611f0060608301846116e1565b95945050505050565b7f446f63756d656e7452656769737472793a205369676e617475726520616c726560008201527f6164792075736564000000000000000000000000000000000000000000000000602082015250565b6000611f65602883611a9f565b9150611f7082611f09565b604082019050919050565b60006020820190508181036000830152611f9481611f58565b9050919050565b611fa481611767565b8114611faf57600080fd5b50565b600081519050611fc181611f9b565b92915050565b600060208284031215611fdd57611fdc6114c5565b5b6000611feb84828501611fb2565b91505092915050565b7f446f63756d656e7452656769737472793a205369676e6572206973206e6f742060008201527f616e20617574686f72697a6564204e6f74617279000000000000000000000000602082015250565b6000612050603483611a9f565b915061205b82611ff4565b604082019050919050565b6000602082019050818103600083015261207f81612043565b9050919050565b7f4e487b7100000000000000000000000000000000000000000000000000000000600052601160045260246000fd5b60006120c0826114cf565b91506120cb836114cf565b92508282019050808211156120e3576120e2612086565b5b92915050565b7f446f63756d656e7452656769737472793a205369676e6174757265206578706960008201527f7265640000000000000000000000000000000000000000000000000000000000602082015250565b6000612145602383611a9f565b9150612150826120e9565b604082019050919050565b6000602082019050818103600083015261217481612138565b9050919050565b60006040820190506121906000830185611758565b61219d60208301846116e1565b9392505050565b60006020820190506121b960008301846116e1565b92915050565b60006020820190506121d46000830184611b13565b92915050565b7f4e487b7100000000000000000000000000000000000000000000000000000000600052602260045260246000fd5b6000600282049050600182168061222157607f821691505b602082108103612234576122336121da565b5b50919050565b600060a08201905061224f6000830188611b13565b61225c6020830187611b13565b6122696040830186611b13565b61227660608301856116e1565b61228360808301846116d2565b9695505050505050565b60006080820190506122a26000830187611b13565b6122af6020830186611eb5565b6122bc6040830185611b13565b6122c96060830184611b13565b9594505050505056fea26469706673582212201fbc27aea5f91423aff670ab4937bbf5641b48dad09f1c74f5ecd15557f25f2764736f6c63430008140033",
  "linkReferences": {},
  "deployedLinkReferences": {}
}